S00F000044494F204546492E7372656345
S113000019C030C027C026C025C024C023C022C0C8
S113001021C020C01FC01EC01DC01CC054C01AC0B7
S113002019C018C017C016C015C014C013C012C020
S113003011C010C011241FBECFEFD2E0DEBFCDBF70
S113004021E0A0E0B1E001C01D92A932B207E1F7BE
S113005009D15CC1D5CF80E680937C0087E880938A
S11300607A0008951F920F920FB60F9211248F9366
S11300709F93EF93FF93E0E0F1E083819481928377
S11300808183148213828BB181608BB980818160FA
S1130090808380910D018F3F29F080910D018F5F46
S11300A080930D01E9E0F1E08381818312828081F4
S11300B082608083FF91EF919F918F910F900FBE8B
S11300C00F901F9018951F920F920FB60F92112444
S11300D02F938F939F93EF93FF938091090181FF57
S11300E00BC0E9E0F1E080818D7F808380818160B5
S11300F080838BB181608BB98091090180FF11C02D
S1130100E9E0F1E092818181981730F080818C7F61
S113011080838BB181708BB9E9E0F1E082818F5FDC
S113012082838091000180FF15C0E0E0F1E08381CB
S11301309481019694838383838194818115944669
S113014048F010821482138215828BB18E7F8BB992
S113015010920A01FF91EF919F918F912F910F902F
S11301600FBE0F901F901895F89460910101709143
S113017002017894EFE0F1E0838590E0982F8827DE
S11301802485822B6115710561F099D0872F90E049
S1130190892B21F08FEF8093050108956093050169
S11301A008951092050108950F93F894E0E0F1E0AA
S11301B08081837F8260808378940781EFE0F1E01F
S11301C0218D408D6DEC80E006D0F89480930C0175
S11301D078940F9108950F93CF93DF938017C8F508
S11301E00617C8F5D62FD81BC1F1C42F081B241736
S11301F0C0F46D2F70E0842F90E0821B91099C0164
S1130200029FC001039F900D11246DD0ED2FE69540
S1130210F0E08E179F0714F06F5F7F4F8C2F861BC3
S11302201DC06D2F70E0822F90E0841B91099C010A
S1130230029FC001039F900D112455D0ED2FE69528
S1130240F0E08E179F0714F06F5F7F4F8C2F860F9F
S113025005C0842F03C0822F01C0842FDF91CF916A
S11302600F9108958AB181608AB98AB181608AB98F
S113027084B5826084BD88EC87BDEEE6F0E08081C1
S11302808260808385B5826085BDE5DE8BB1816047
S11302908BB9E9E6F0E08081826080838DB3816070
S11302A08DBB78948091000180FFFCCF5DDF90913D
S11302B0050180911C018917A8F376DFF3CFAA1BEF
S11302C0BB1B51E107C0AA1FBB1FA617B70710F03D
S11302D0A61BB70B881F991F5A95A9F7809590956F
S11302E0BC01CD01089597FB072E16F4009406D0A7
S11302F077FD08D0E4DF07FC05D03EF490958195A6
S11303009F4F0895709561957F4F0895F894FFCF9E
S9030000FC
